S0180000706C6174696E756D5F66726565646F6D2E7372656361
S1130000F82F002011040000F5180000F518000076
S1130010F5180000F5180000F5180000F5180000A8
S1130020F5180000F5180000F5180000F518000098
S1130030F5180000F5180000F5180000F518000088
S1130040F5180000F5180000F5180000F518000078
S1130400FFFFFFFFFFFFFFFFFFFFFFFFFEFFFFFFF9
S113041000200021002200230024002500260027BC
S113042062B600F02BFBFEE710B50C001168012941
S113043002D0022904D008E0C0B25168884704E021
S1130440916808709068401C90602068401C20608F
S113045010BDF0B51D00002300240370461C002AC3
S11304600F6814D0002F14D03800290000F09EFA31
S1130470010068433A1A02D5D243313200E03032E7
S11304800F003270761C641C002F18D0ECE7002F8C
S113049003D130203070012411E03800290000F02D
S11304A088FA01006943791A0A2901D2303100E03F
S11304B0373107003170761C641C002FEDD1200009
S11304C0F0BDF8B517001C00884214DA0D1A302666
S11304D02068012807D0022808D1A0680670A06807
S11304E0401CA06002E03020616888473868401CE6
S11304F038606D1EECD1F1BDF8B517001C008842C0
S113050014DA0D1A20262068012807D0022808D101
S1130510A0680670A068401CA06002E0202061680A
S113052088473868401C38606D1EECD1F1BDF0B5C9
S113053091B00600150000200090049106E03200FE
S11305406946FFF771FF0498401C049004980078F2
S1130550002800D1FFE1252826D00A28EFD13068F1
S1130560012808D0022809D10D20B1680870B068AC
S1130570401CB06002E00D20716888470098401C60
S113058000903068012808D0022809D10A20B168F7
S11305900870B068401CB06002E00A2071688847A7
S11305A00098401C0090CEE7002702E03800102796
S11305B007430498401C0490007820280ED0232878
S11305C0F4D02B2807D02D2802D0302809D00BE0F6
S11305D038000127ECE738000227E9E73800042750
S11305E0E6E738000827E3E70499491E002005E000
S11305F0029A93009A185200101830380290491C3D
S113060008780200303A092AF2D92E2804D1491C6C
S1130610087830380928FAD9491E481C02784C2A2F
S113062004D0682A02D06C2A00D00800401C049030
S11306300078582872D0622800D113E1632800D1D1
S113064057E1642813D0692811D06E2800D17DE1C8
S11306506F2800D101E1702800D108E1732800D18E
S11306604DE1752800D107E1782857D067E728685D
S11306702D1D06900A23012206A907A8FFF7E9FE0B
S1130680040007A8001905900698002801D52D201C
S113069006E0B80701D52B2002E0780703D5202017
S11306A00190641C01E00020019038070DD50198E9
S11306B0002803D032006946FFF7B6FE33006A46CD
S11306C002992000FFF7FDFEFDE0F8070ED4330089
S11306D06A4602992000FFF70FFF0198002800D115
S11306E0FBE032006946FFF79FFEF6E00198002820
S11306F000D1F2E03068012808D002280AD101981C
S1130700B1680870B068401CB06003E00198C0B2E2
S1130710716888470098401C0090DEE028682D1D11
S113072003901023002203A907A8FFF792FE0400F8
S113073007A8001905900020019038072FD5F80666
S113074025D53068012808D0022809D13020B168A5
S11307500870B068401CB06002E0302071688847BF
S11307600098401C00903068012808D0022809D164
S11307707820B1680870B068401CB06002E078204E
S1130780716888470098401C009001200190330054
S11307906A4602992000FFF794FE029C32E0F807B3
S11307A030D4F80600D5A41C33006A460299200010
S11307B0FFF7A2FEF80625D53068012808D00228E4
S11307C009D13020B1680870B068401CB06002E004
S11307D03020716888470098401C009030680128D8
S11307E008D0022809D17820B1680870B068401C8C
S11307F0B06002E07820716888470098401C00903F
S113080001200190F80668D50198002865D1306868
S1130810012808D0022809D13020B1680870B068D6
S1130820401CB06002E03020716888470098401C8A
S113083000903068012808D0022809D17820B168D6
S11308400870B068401CB06002E078207168884786
S11308500098401C0090A41C3FE028682D1D0390C4
S113086008230DE028682D1D0390022308E0286862
S11308702D1D0390102303E028682D1D03900A23E7
S1130880002203A907A8FFF7E4FD040007A8001944
S11308900590380719D50298844214DA041B30688D
S11308A0012808D0022809D13020B1680870B06846
S11308B0401CB06002E03020716888470098401CFA
S11308C00090641EEBD1029C07E0F80705D43300C6
S11308D06A4602992000FFF70FFE05980078002869
S11308E02AD032006946FFF79FFD0598401E059007
S11308F0F3E728682D1D32006946C0B221E6286856
S11309002D1D0190002800D11DE600F0A9F8040077
S1130910F8070DD433006A4602992000FFF7ECFD76
S113092006E032006946FFF77FFD0198401C019004
S1130930019800780028F4D1F80700D403E63300C6
S11309406A4602992000FFF7D7FDFCE528682D1DB3
S113095000990160F7E5009811B0F0BD0EB400B540
S113096084B0012100910549019105AA010068465E
S1130970FFF7DDFD049908B0084700007716000072
S1130980F446002804D4494200F013F8404260477A
S11309904042002905D45FD000F00BF840424942A0
S11309A06047494200F005F84942604703460B435B
S11309B0E6D40022030A8B420BD203098B4219D2DC
S11309C043088B422ED2411A00D2014652411046AE
S11309D07047FF2209023FD012068B4205D3121240
S11309E009028B4201D31212090203098B4219D363
S11309F000E0090AC3098B4201D3CB01C01A52415A
S1130A0083098B4201D38B01C01A524143098B42A3
S1130A1001D34B01C01A524103098B4201D30B018C
S1130A20C01A5241C3088B4201D3CB00C01A5241B1
S1130A3083088B4201D38B00C01A524143088B4276
S1130A4001D34B00C01A5241884200D3401A52418C
S1130A50CFD201461046704708B500F00DF808BD26
S1130A6001000020002902D17047491C401C0A786B
S1130A70002AFAD1704700007047000080B50020BA
S1130A805649086000F0DCF900F010FA5448FFF70A
S1130A9065FF00F06BFA00F003F800F0DBFBFEE703
S1130AA070B507264F4C2068000F304006D002284E
S1130AB008D005D3042809D006D309E09EA008E095
S1130AC09FA006E0A0A004E0A1A002E0A2A000E094
S1130AD0A3A0FFF743FF2068000E3040042802D093
S1130AE0052802D003E084A003E084A001E000BF55
S1130AF0A5A0FFF733FF0F252068284008281BD83E
S1130B0001A1095C8F4400BF0A101430181C223064
S1130B102A0000BFA7A010E0AAA00EE0ADA00CE040
S1130B20AFA00AE0B1A0FFF719FF00BFB2A0FFF722
S1130B3015FF00BFB3A000E0B6A0FFF70FFF2068C9
S1130B40000D3040012801D16D4800E06D48FFF7E9
S1130B5005FF2068000C0640072E17D801A0805D11
S1130B60874400BF080C1014181C202466480EE0AB
S1130B7066480CE066480AE0664808E0664806E015
S1130B80664804E0664802E0664800E06648FFF70D
S1130B90E5FE0F216548FFF7E1FEA06A000E05405F
S1130BA00CD0012D0CD0032D0CD0052D0CD0072D0D
S1130BB00ED0092D0AD00F2D0AD00BE05C480AE0B4
S1130BC05C4808E008A006E016A004E024A002E0C7
S1130BD032A000E040A0FFF7C1FE70BD00810440D8
S1130BE08816000024800440466C61736820736991
S1130BF07A653A20203332204B422070726F67723C
S1130C00616D20666C6173682C2031204B4220702A
S1130C10726F74656374696F6E20726567696F6E55
S1130C2009000000466C6173682073697A653A2094
S1130C30203634204B422070726F6772616D2066DB
S1130C406C6173682C2032204B422070726F746583
S1130C506374696F6E20726567696F6E09000000C6
S1130C60466C6173682073697A653A2020323536A0
S1130C70204B422070726F6772616D20666C6173E5
S1130C80682C2034204B422070726F746563746941
S1130C906F6E20726567696F6E090000466C617340
S1130CA0682073697A653A2020313238204B42201B
S1130CB070726F6772616D20666C6173682C20348A
S1130CC0204B422070726F74656374696F6E20727A
S1130CD06567696F6E090000455252212120556EE7
S1130CE0646566696E656420666C61736820736907
S1130CF07A650A0D00000000340000003500000091
S1130D0090160000B8160000E4160000F816000063
S1130D100C170000201700003417000048170000CB
S1130D205C1700007017000084170000A017000073
S1130D30B4170000F01700000A0D4B4C30000000FF
S1130D400A0D4B4C310000000A0D4B4C32000000E0
S1130D500A0D4B4C330000000A0D4B4C34000000CC
S1130D600A0D556E7265636F676E697A6564204B10
S1130D70696E657469732066616D696C7920646558
S1130D80766963652E0A0D000A0D556E7265636FF0
S1130D90676E697A6564204B696E65746973207344
S1130DA075622D66616D696C792064657669636529
S1130DB02E0A0D00313670696E202020202020205C
S1130DC000000000323470696E2020202020202092
S1130DD000000000333270696E20202020202000A3
S1130DE0343870696E202020202020003634706949
S1130DF06E20202020202000383070696E202020B2
S1130E002020200031303070696E202020202020E6
S1130E10000000000A0D556E7265636F676E697A93
S1130E206564204B696E65746973207061636B61DE
S1130E30676520636F64652E202020202020000039
S1130E4010B51049104C8C4204D08222D2002000EC
S1130E5000F02EFA200000F045FA0C490C48421A22
S1130E6002D00C4800F010FA0B480C49091A01D0C2
S1130E7000F060FA0A490B48421A02D00A4800F00E
S1130E8003FA10BD0000000000F0FF1F0000000086
S1130E90000000000000000010F4FF1F24F4FF1FF6
S1130EA0F6180000F618000024F4FF1FF0B583B014
S1130EB0274C606BF82189010143616308202549AF
S1130EC00A78024202D00A7810430870224820644B
S1130ED001200190302000900423012200211F48AA
S1130EE000F02CFA1E4D2860FF2800DCFEE7206885
S1130EF080214902014321602E68FA27BF00F00FC8
S1130F00801940103900FFF751FD28613000390085
S1130F10FFF74CFD6860216C090F491CFFF749FD80
S1130F20A860216C4903490F491CFFF742FDE860A2
S1130F300C48410D0160416020684904014321606F
S1130F40E12252022969084800F00CFB03B0F0BD0D
S1130F500480044002D007400000011000127A000F
S1130F6010F4FF1F0490044000A00640F8B5484C5C
S1130F706078800603D500BF47A0FFF7EFFC082781
S1130F806078384203D000BF4CA0FFF7E7FC04258B
S1130F906078284203D000BF4CA0FFF7DFFC022694
S1130FA06078304203D000BF4DA0FFF7D7FC207813
S1130FB0000602D551A0FFF7D1FC2078400602D5E7
S1130FC053A0FFF7CBFC2078800602D556A0FFF78C
S1130FD0C5FC2078284202D059A0FFF7BFFC207836
S1130FE0384202D05EA0FFF7B9FC2078304202D02C
S1130FF062A0FFF7B3FC2078C0073AD566A0FFF7DC
S1131000ADFC0725234E30782840032803D100BFC8
S11310106DA0FFF7A3FC30782840042805D1707830
S1131020284202D16BA0FFF799FC307828400428AD
S113103007D170782840012803D100BF68A0FFF7CA
S11310408DFC30782840042807D170782840022885
S113105003D100BF65A0FFF781FC30782840042845
S113106007D170780540032D03D100BF62A0FFF7BC
S113107075FC207800280AD16078002807D12178EF
S113108060A0FFF76BFC617868A0FFF767FCF1BD17
S113109000F0074001E007400A0D53746F70204DC3
S11310A06F64652041636B6E6F776C656467652060
S11310B04572726F72205265736574000A0D4D4457
S11310C04D2D415020526573657400000A0D536F15
S11310D06674776172652052657365740000000060
S11310E00A0D436F7265204C6F636B7570204576F3
S11310F0656E742052657365740000000A0D506FAC
S11311007765722D6F6E2052657365740000000060
S11311100A0D45787465726E616C2050696E2052B8
S113112065736574000000000A0D57617463686498
S11311306F6728434F50292052657365740000007F
S11311400A0D4C6F7373206F662045787465726E58
S1131150616C20436C6F636B20526573657400008F
S11311600A0D4C6F7373206F66204C6F636B20699C
S11311706E20504C4C205265736574000A0D4C6F00
S1131180772D766F6C74616765204465746563744C
S113119020526573657400000A0D5B6F75745352B9
S11311A0535D57616B657570206269742073657453
S11311B02066726F6D206C6F7720706F7765722078
S11311C06D6F6465200000004C4C53206578697491
S11311D020000000564C4C53302065786974200080
S11311E0564C4C533120657869742000564C4C534E
S11311F03220657869740000564C4C53332065786E
S1131200697420005B6F75745352535D52434D5F94
S113121053525330206973205A45524F2020203DA9
S1131220202523303258200D0A0D00005B6F7574A1
S11312305352535D52434D5F5352533120697320CF
S11312405A45524F2020203D202523303258200D6E
S11312500A0D000080B500BF03A0FFF77FFB00F07C
S113126005FA00F008FAFAE70A52756E6E696E67BD
S11312702074686520706C6174696E756D2070727D
S11312806F6A6563742E0A00124207D08B0706D07A
S11312900B78491C0370401C521EF7D87047830713
S11312A006D00B78491C0370401C521EF9D17047BC
S11312B070B4103A03D378C9103A78C0FBD25307FC
S11312C001D318C918C001D508C908C0D20704D36E
S11312D00B880380891C801C002A01D50B780370BD
S11312E070BC7047014908607047000008ED00E0D9
S11312F0094205D0830705D00270401C491EF9D16C
S113130070470000130030B414001500103902D3E4
S113131010393CC0FCD2490700D30CC000D504C02E
S1131320890002D30280801C002900D5027030BCE1
S1131330704700000022DBE70022E3E7FDB50F0061
S1131340794D0326A8798008304005D1A879C006D4
S113135002D5A879800601D50120E3E000987349FD
S1131360884201DB2120DDE0002A06D070494018C4
S11313707049884201D32220D4E0002F00D00127F5
S11313806946581E192801D34120CBE020200C5671
S1131390200018381B2801D34220C3E000981946C6
S11313A0FFF704FB64494118644A914201D3432086
S11313B0B8E06043624940186249884201D345203D
S11313C0B0E06978C3200840694609798900FA00C9
S11313D0009B5D4FBB4202DA1143102201E011432E
S11313E020220A4302436A7000985849884201DA6D
S11313F0002014E05649884201DA01200FE05549E3
S1131400884201DA02200AE05349884201DA0320C3
S113141005E05249884201DA042000E005202978D9
S113142003220A40C000104380210143297068460A
S1131430007900280CD04A4902200223AA791A42D2
S113144001D1491EFAD1A979014201D1232069E0D1
S1131450FA20C0000100AA79D20601D5491EFAD1AA
S1131460A979C90601D511205CE00100AA79920886
S11314703240022A01D0491EF8D1A97989083140A5
S1131480022901D01A204DE0697920220A436A71A9
S11314902F791F21E0221740BC466F460823FB56D4
S11314A05B1E0B4067463B432B716F7940233A40E8
S11314B0183C0C4014431C436C710200AC79A40624
S11314C001D4521EFAD1AA79920601D4162029E039
S11314D04200AC791C4201D1521EFAD1AA791A42B7
S11314E001D144201EE02A790A40521C6B7919402C
S11314F018310C0029788906890E2970A979890880
S11315003140032901D0401EF8D1A8798008064053
S1131510032E01D01B2005E00098D1B2FFF746FA54
S1131520E4B2604303B0F0BD0040064081F0FA022B
S11315304039D2FF4181BA01807BE1FF81841E00E2
S1131540009423FD0175190301127A00D1121300CE
S1131550A1252600414B4C0081969800012D3101B4
S1131560204E0000FCB53648036B040D1C43046395
S1131570344DEB78F3241C40EC700B00203B324CD0
S1131580A34204D30168314A0A400260FEE7140012
S1131590FA208000414300910846A100FFF709FAB0
S11315A081000098FFF705FA844201D2061B00E08F
S11315B0261A042001900527009821007943FFF79B
S11315C0F8F9010079430098FFF7F3F9844201D256
S11315D0001B00E0201A864201D3060001977F1CFD
S11315E0212FE9DB20006421FFF7E3F9410008180B
S11315F0864223D20198001F052803D2E87A0221EB
S11316000143E972A87A1F26B0430199491E31406B
S11316100143A97200983140491C4C432100FFF753
S1131620C8F92978E0220A40010A0E4016432E70B8
S11316306870E8780C210143E970F3BDFEE700000F
S11316400480044000A0064031C30000FFFFFFF304
S113165000BF202102790A42FCD0C079704700BF44
S1131660802203791342FCD0C171704780B50548CC
S1131670FFF7EEFF02BD80B501000248FFF7EFFF60
S113168001BD000000A006400A0D0A0D0000000084
S11316900A0D4C6F7720506F776572204C696E6528
S11316A0207769746820436F72746578204D302BFD
S11316B00A0D0A0D000000000A0D556E7265636F75
S11316C0676E697A6564204B696E65746973206618
S11316D0616D696C79206174747269627574652EC8
S11316E00A0D00005352414D2053697A653A203067
S11316F02E35204B420A0D005352414D2053697A36
S1131700653A202031204B420A0D00005352414DCE
S11317102053697A653A202032204B420A0D00009A
S11317205352414D2053697A653A202034204B426C
S11317300A0D00005352414D2053697A653A202026
S113174038204B420A0D00005352414D2053697A10
S1131750653A20203136204B420A0D005352414D48
S11317602053697A653A20203332204B420A0D0017
S11317705352414D2053697A653A20203634204B28
S1131780420A0D000A0D556E7265636F676E697AC1
S11317906564205352414D2053697A652E0A0D0029
S11317A053696C69636F6E207265762025640A0D37
S11317B020000000466C6173682073697A653A20E2
S11317C02038204B422070726F6772616D20666C06
S11317D06173682C20302E3235204B422070726F9A
S11317E074656374696F6E20726567696F6E00005B
S11317F0466C6173682073697A653A20203136201B
S11318004B422070726F6772616D20666C61736801
S11318102C20302E35204B422070726F7465637417
S1131820696F6E20726567696F6E090070B401217B
S1131830002313E00468001D0C4202D04D466D1EC7
S113184064192360241D121F042AFAD22500960766
S113185001D52380AD1C0A4000D02B700268001D06
S1131860002AE7D170BC704710B507497944183194
S1131870064C7C44163404E0081D0A68891888471D
S11318800100A142F8D110BD0800000014000000BE
S11318909DFFFFFF1400000010F4FF1F0000000074
S11318A000F00BF8002801D0FFF7DEFF0020C0464F
S11318B0C046FFF7CFFC00F002F80120704780B566
S11318C000F002F801BD00000746384600F002F8B7
S11318D0FBE7000080B5C046C046024A110018204C
S11318E0ABBEFBE726000200C046C046C046C04669
S10918F0FFF7D6FF70476C
S90318E9FB
